{
  "_format": "hh-sol-artifact-1",
  "contractName": "PeerAIToken",
  "sourceName": "contracts/PeerAIToken.sol",
  "abi": [
    {
      "inputs": [],
      "stateMutability": "nonpayable",
      "type": "constructor"
    },
    {
      "anonymous": false,
      "inputs": [
        {
          "indexed": true,
          "internalType": "address",
          "name": "owner",
          "type": "address"
        },
        {
          "indexed": true,
          "internalType": "address",
          "name": "spender",
          "type": "address"
        },
        {
          "indexed": false,
          "internalType": "uint256",
          "name": "value",
          "type": "uint256"
        }
      ],
      "name": "Approval",
      "type": "event"
    },
    {
      "anonymous": false,
      "inputs": [
        {
          "indexed": true,
          "internalType": "address",
          "name": "previousOwner",
          "type": "address"
        },
        {
          "indexed": true,
          "internalType": "address",
          "name": "newOwner",
          "type": "address"
        }
      ],
      "name": "OwnershipTransferred",
      "type": "event"
    },
    {
      "anonymous": false,
      "inputs": [
        {
          "indexed": false,
          "internalType": "address",
          "name": "account",
          "type": "address"
        }
      ],
      "name": "Paused",
      "type": "event"
    },
    {
      "anonymous": false,
      "inputs": [
        {
          "indexed": true,
          "internalType": "address",
          "name": "account",
          "type": "address"
        },
        {
          "indexed": false,
          "internalType": "uint256",
          "name": "amount",
          "type": "uint256"
        }
      ],
      "name": "TokensBurned",
      "type": "event"
    },
    {
      "anonymous": false,
      "inputs": [
        {
          "indexed": true,
          "internalType": "address",
          "name": "recipient",
          "type": "address"
        },
        {
          "indexed": false,
          "internalType": "uint256",
          "name": "amount",
          "type": "uint256"
        },
        {
          "indexed": false,
          "internalType": "string",
          "name": "reason",
          "type": "string"
        }
      ],
      "name": "TokensRewarded",
      "type": "event"
    },
    {
      "anonymous": false,
      "inputs": [
        {
          "indexed": true,
          "internalType": "address",
          "name": "from",
          "type": "address"
        },
        {
          "indexed": true,
          "internalType": "address",
          "name": "to",
          "type": "address"
        },
        {
          "indexed": false,
          "internalType": "uint256",
          "name": "value",
          "type": "uint256"
        }
      ],
      "name": "Transfer",
      "type": "event"
    },
    {
      "anonymous": false,
      "inputs": [
        {
          "indexed": false,
          "internalType": "address",
          "name": "account",
          "type": "address"
        }
      ],
      "name": "Unpaused",
      "type": "event"
    },
    {
      "inputs": [],
      "name": "INITIAL_SUPPLY",
      "outputs": [
        {
          "internalType": "uint256",
          "name": "",
          "type": "uint256"
        }
      ],
      "stateMutability": "view",
      "type": "function"
    },
    {
      "inputs": [],
      "name": "REWARD_PER_MANUSCRIPT",
      "outputs": [
        {
          "internalType": "uint256",
          "name": "",
          "type": "uint256"
        }
      ],
      "stateMutability": "view",
      "type": "function"
    },
    {
      "inputs": [],
      "name": "REWARD_PER_REVIEW",
      "outputs": [
        {
          "internalType": "uint256",
          "name": "",
          "type": "uint256"
        }
      ],
      "stateMutability": "view",
      "type": "function"
    },
    {
      "inputs": [
        {
          "internalType": "address",
          "name": "owner",
          "type": "address"
        },
        {
          "internalType": "address",
          "name": "spender",
          "type": "address"
        }
      ],
      "name": "allowance",
      "outputs": [
        {
          "internalType": "uint256",
          "name": "",
          "type": "uint256"
        }
      ],
      "stateMutability": "view",
      "type": "function"
    },
    {
      "inputs": [
        {
          "internalType": "address",
          "name": "spender",
          "type": "address"
        },
        {
          "internalType": "uint256",
          "name": "amount",
          "type": "uint256"
        }
      ],
      "name": "approve",
      "outputs": [
        {
          "internalType": "bool",
          "name": "",
          "type": "bool"
        }
      ],
      "stateMutability": "nonpayable",
      "type": "function"
    },
    {
      "inputs": [
        {
          "internalType": "address",
          "name": "account",
          "type": "address"
        }
      ],
      "name": "balanceOf",
      "outputs": [
        {
          "internalType": "uint256",
          "name": "",
          "type": "uint256"
        }
      ],
      "stateMutability": "view",
      "type": "function"
    },
    {
      "inputs": [
        {
          "internalType": "address",
          "name": "account",
          "type": "address"
        },
        {
          "internalType": "uint256",
          "name": "amount",
          "type": "uint256"
        }
      ],
      "name": "burn",
      "outputs": [],
      "stateMutability": "nonpayable",
      "type": "function"
    },
    {
      "inputs": [
        {
          "internalType": "address",
          "name": "recipient",
          "type": "address"
        },
        {
          "internalType": "uint256",
          "name": "amount",
          "type": "uint256"
        },
        {
          "internalType": "string",
          "name": "reason",
          "type": "string"
        }
      ],
      "name": "customReward",
      "outputs": [],
      "stateMutability": "nonpayable",
      "type": "function"
    },
    {
      "inputs": [],
      "name": "decimals",
      "outputs": [
        {
          "internalType": "uint8",
          "name": "",
          "type": "uint8"
        }
      ],
      "stateMutability": "view",
      "type": "function"
    },
    {
      "inputs": [
        {
          "internalType": "address",
          "name": "spender",
          "type": "address"
        },
        {
          "internalType": "uint256",
          "name": "subtractedValue",
          "type": "uint256"
        }
      ],
      "name": "decreaseAllowance",
      "outputs": [
        {
          "internalType": "bool",
          "name": "",
          "type": "bool"
        }
      ],
      "stateMutability": "nonpayable",
      "type": "function"
    },
    {
      "inputs": [
        {
          "internalType": "address",
          "name": "spender",
          "type": "address"
        },
        {
          "internalType": "uint256",
          "name": "addedValue",
          "type": "uint256"
        }
      ],
      "name": "increaseAllowance",
      "outputs": [
        {
          "internalType": "bool",
          "name": "",
          "type": "bool"
        }
      ],
      "stateMutability": "nonpayable",
      "type": "function"
    },
    {
      "inputs": [],
      "name": "name",
      "outputs": [
        {
          "internalType": "string",
          "name": "",
          "type": "string"
        }
      ],
      "stateMutability": "view",
      "type": "function"
    },
    {
      "inputs": [],
      "name": "owner",
      "outputs": [
        {
          "internalType": "address",
          "name": "",
          "type": "address"
        }
      ],
      "stateMutability": "view",
      "type": "function"
    },
    {
      "inputs": [],
      "name": "pause",
      "outputs": [],
      "stateMutability": "nonpayable",
      "type": "function"
    },
    {
      "inputs": [],
      "name": "paused",
      "outputs": [
        {
          "internalType": "bool",
          "name": "",
          "type": "bool"
        }
      ],
      "stateMutability": "view",
      "type": "function"
    },
    {
      "inputs": [],
      "name": "renounceOwnership",
      "outputs": [],
      "stateMutability": "nonpayable",
      "type": "function"
    },
    {
      "inputs": [
        {
          "internalType": "address",
          "name": "recipient",
          "type": "address"
        },
        {
          "internalType": "string",
          "name": "reason",
          "type": "string"
        }
      ],
      "name": "rewardAuthor",
      "outputs": [],
      "stateMutability": "nonpayable",
      "type": "function"
    },
    {
      "inputs": [
        {
          "internalType": "address",
          "name": "recipient",
          "type": "address"
        },
        {
          "internalType": "string",
          "name": "reason",
          "type": "string"
        }
      ],
      "name": "rewardReviewer",
      "outputs": [],
      "stateMutability": "nonpayable",
      "type": "function"
    },
    {
      "inputs": [],
      "name": "symbol",
      "outputs": [
        {
          "internalType": "string",
          "name": "",
          "type": "string"
        }
      ],
      "stateMutability": "view",
      "type": "function"
    },
    {
      "inputs": [],
      "name": "totalSupply",
      "outputs": [
        {
          "internalType": "uint256",
          "name": "",
          "type": "uint256"
        }
      ],
      "stateMutability": "view",
      "type": "function"
    },
    {
      "inputs": [
        {
          "internalType": "address",
          "name": "to",
          "type": "address"
        },
        {
          "internalType": "uint256",
          "name": "amount",
          "type": "uint256"
        }
      ],
      "name": "transfer",
      "outputs": [
        {
          "internalType": "bool",
          "name": "",
          "type": "bool"
        }
      ],
      "stateMutability": "nonpayable",
      "type": "function"
    },
    {
      "inputs": [
        {
          "internalType": "address",
          "name": "from",
          "type": "address"
        },
        {
          "internalType": "address",
          "name": "to",
          "type": "address"
        },
        {
          "internalType": "uint256",
          "name": "amount",
          "type": "uint256"
        }
      ],
      "name": "transferFrom",
      "outputs": [
        {
          "internalType": "bool",
          "name": "",
          "type": "bool"
        }
      ],
      "stateMutability": "nonpayable",
      "type": "function"
    },
    {
      "inputs": [
        {
          "internalType": "address",
          "name": "newOwner",
          "type": "address"
        }
      ],
      "name": "transferOwnership",
      "outputs": [],
      "stateMutability": "nonpayable",
      "type": "function"
    },
    {
      "inputs": [],
      "name": "unpause",
      "outputs": [],
      "stateMutability": "nonpayable",
      "type": "function"
    }
  ],
  "bytecode": "0x60806040523480156200001157600080fd5b506040518060400160405280600c81526020017f50656572414920546f6b656e00000000000000000000000000000000000000008152506040518060400160405280600381526020017f504149000000000000000000000000000000000000000000000000000000000081525081600390816200008f919062000642565b508060049081620000a1919062000642565b505050620000c4620000b86200010160201b60201c565b6200010960201b60201c565b6000600560146101000a81548160ff021916908315150217905550620000fb3369d3c21bcecceda1000000620001cf60201b60201c565b620008b6565b600033905090565b6000600560009054906101000a900473ffffffffffffffffffffffffffffffffffffffff16905081600560006101000a81548173ffffffffffffffffffffffffffffffffffffffff021916908373ffffffffffffffffffffffffffffffffffffffff1602179055508173ffffffffffffffffffffffffffffffffffffffff168173ffffffffffffffffffffffffffffffffffffffff167f8be0079c531659141344cd1fd0a4f28419497f9722a3daafe3b4186f6b6457e060405160405180910390a35050565b600073ffffffffffffffffffffffffffffffffffffffff168273ffffffffffffffffffffffffffffffffffffffff160362000241576040517f08c379a000000000000000000000000000000000000000000000000000000000815260040162000238906200078a565b60405180910390fd5b62000255600083836200033c60201b60201c565b8060026000828254620002699190620007db565b92505081905550806000808473ffffffffffffffffffffffffffffffffffffffff1673ffffffffffffffffffffffffffffffffffffffff168152602001908152602001600020600082825401925050819055508173ffffffffffffffffffffffffffffffffffffffff16600073ffffffffffffffffffffffffffffffffffffffff167fddf252ad1be2c89b69c2b068fc378daa952ba7f163c4a11628f55a4df523b3ef836040516200031c919062000827565b60405180910390a36200033860008383620003a760201b60201c565b5050565b6200034f838383620003ac60201b60201c565b6200035f620003b160201b60201c565b15620003a2576040517f08c379a0000000000000000000000000000000000000000000000000000000008152600401620003999062000894565b60405180910390fd5b505050565b505050565b505050565b6000600560149054906101000a900460ff16905090565b600081519050919050565b7f4e487b7100000000000000000000000000000000000000000000000000000000600052604160045260246000fd5b7f4e487b7100000000000000000000000000000000000000000000000000000000600052602260045260246000fd5b600060028204905060018216806200044a57607f821691505b60208210810362000460576200045f62000402565b5b50919050565b60008190508160005260206000209050919050565b60006020601f8301049050919050565b600082821b905092915050565b600060088302620004ca7fffffffffffffffffffffffffffffffffffffffffffffffffffffffffffffffff826200048b565b620004d686836200048b565b95508019841693508086168417925050509392505050565b6000819050919050565b6000819050919050565b6000620005236200051d6200051784620004ee565b620004f8565b620004ee565b9050919050565b6000819050919050565b6200053f8362000502565b620005576200054e826200052a565b84845462000498565b825550505050565b600090565b6200056e6200055f565b6200057b81848462000534565b505050565b5b81811015620005a3576200059760008262000564565b60018101905062000581565b5050565b601f821115620005f257620005bc8162000466565b620005c7846200047b565b81016020851015620005d7578190505b620005ef620005e6856200047b565b83018262000580565b50505b505050565b600082821c905092915050565b60006200061760001984600802620005f7565b1980831691505092915050565b600062000632838362000604565b9150826002028217905092915050565b6200064d82620003c8565b67ffffffffffffffff811115620006695762000668620003d3565b5b62000675825462000431565b62000682828285620005a7565b600060209050601f831160018114620006ba5760008415620006a5578287015190505b620006b1858262000624565b86555062000721565b601f198416620006ca8662000466565b60005b82811015620006f457848901518255600182019150602085019450602081019050620006cd565b8683101562000714578489015162000710601f89168262000604565b8355505b6001600288020188555050505b505050505050565b600082825260208201905092915050565b7f45524332303a206d696e7420746f20746865207a65726f206164647265737300600082015250565b600062000772601f8362000729565b91506200077f826200073a565b602082019050919050565b60006020820190508181036000830152620007a58162000763565b9050919050565b7f4e487b7100000000000000000000000000000000000000000000000000000000600052601160045260246000fd5b6000620007e882620004ee565b9150620007f583620004ee565b925082820190508082111562000810576200080f620007ac565b5b92915050565b6200082181620004ee565b82525050565b60006020820190506200083e600083018462000816565b92915050565b7f546f6b656e207472616e73666572732061726520706175736564000000000000600082015250565b60006200087c601a8362000729565b9150620008898262000844565b602082019050919050565b60006020820190508181036000830152620008af816200086d565b9050919050565b61235080620008c66000396000f3fe608060405234801561001057600080fd5b50600436106101585760003560e01c806370a08231116100c35780639dc29fac1161007c5780639dc29fac14610381578063a457c2d71461039d578063a9059cbb146103cd578063dbde3936146103fd578063dd62ed3e14610419578063f2fde38b1461044957610158565b806370a08231146102e3578063715018a6146103135780638456cb591461031d5780638da5cb5b1461032757806395d89b411461034557806399d75bb51461036357610158565b8063395093511161011557806339509351146102355780633f4ba83a1461026557806349cde1821461026f5780635c975abb1461028d5780636968ad36146102ab5780636e0867e6146102c757610158565b806306fdde031461015d578063095ea7b31461017b57806318160ddd146101ab57806323b872dd146101c95780632ff2e9dc146101f9578063313ce56714610217575b600080fd5b610165610465565b60405161017291906115f2565b60405180910390f35b610195600480360381019061019091906116bc565b6104f7565b6040516101a29190611717565b60405180910390f35b6101b361051a565b6040516101c09190611741565b60405180910390f35b6101e360048036038101906101de919061175c565b610524565b6040516101f09190611717565b60405180910390f35b610201610553565b60405161020e9190611741565b60405180910390f35b61021f610561565b60405161022c91906117cb565b60405180910390f35b61024f600480360381019061024a91906116bc565b61056a565b60405161025c9190611717565b60405180910390f35b61026d6105a1565b005b6102776105b3565b6040516102849190611741565b60405180910390f35b6102956105c0565b6040516102a29190611717565b60405180910390f35b6102c560048036038101906102c0919061191b565b6105d7565b005b6102e160048036038101906102dc919061191b565b61064f565b005b6102fd60048036038101906102f89190611977565b6106c7565b60405161030a9190611741565b60405180910390f35b61031b61070f565b005b610325610723565b005b61032f610735565b60405161033c91906119b3565b60405180910390f35b61034d61075f565b60405161035a91906115f2565b60405180910390f35b61036b6107f1565b6040516103789190611741565b60405180910390f35b61039b600480360381019061039691906116bc565b6107fe565b005b6103b760048036038101906103b291906116bc565b610862565b6040516103c49190611717565b60405180910390f35b6103e760048036038101906103e291906116bc565b6108d9565b6040516103f49190611717565b60405180910390f35b610417600480360381019061041291906119ce565b6108fc565b005b610433600480360381019061042e9190611a3d565b610963565b6040516104409190611741565b60405180910390f35b610463600480360381019061045e9190611977565b6109ea565b005b60606003805461047490611aac565b80601f01602080910402602001604051908101604052809291908181526020018280546104a090611aac565b80156104ed5780601f106104c2576101008083540402835291602001916104ed565b820191906000526020600020905b8154815290600101906020018083116104d057829003601f168201915b5050505050905090565b600080610502610a6d565b905061050f818585610a75565b600191505092915050565b6000600254905090565b60008061052f610a6d565b905061053c858285610c3e565b610547858585610cca565b60019150509392505050565b69d3c21bcecceda100000081565b60006012905090565b600080610575610a6d565b90506105968185856105878589610963565b6105919190611b0c565b610a75565b600191505092915050565b6105a9610f40565b6105b1610fbe565b565b68056bc75e2d6310000081565b6000600560149054906101000a900460ff16905090565b6105df610f40565b6105f2826802b5e3af16b1880000611021565b8173ffffffffffffffffffffffffffffffffffffffff167fb969d134776a7f04430dbbcac4e68734b1c6c5adcecbf68c3cbe6a9a4f2c8a1d6802b5e3af16b188000083604051610643929190611b40565b60405180910390a25050565b610657610f40565b61066a8268056bc75e2d63100000611021565b8173ffffffffffffffffffffffffffffffffffffffff167fb969d134776a7f04430dbbcac4e68734b1c6c5adcecbf68c3cbe6a9a4f2c8a1d68056bc75e2d63100000836040516106bb929190611b40565b60405180910390a25050565b60008060008373ffffffffffffffffffffffffffffffffffffffff1673ffffffffffffffffffffffffffffffffffffffff168152602001908152602001600020549050919050565b610717610f40565b6107216000611177565b565b61072b610f40565b61073361123d565b565b6000600560009054906101000a900473ffffffffffffffffffffffffffffffffffffffff16905090565b60606004805461076e90611aac565b80601f016020809104026020016040519081016040528092919081815260200182805461079a90611aac565b80156107e75780601f106107bc576101008083540402835291602001916107e7565b820191906000526020600020905b8154815290600101906020018083116107ca57829003601f168201915b5050505050905090565b6802b5e3af16b188000081565b610806610f40565b61081082826112a0565b8173ffffffffffffffffffffffffffffffffffffffff167ffd38818f5291bf0bb3a2a48aadc06ba8757865d1dabd804585338aab3009dcb6826040516108569190611741565b60405180910390a25050565b60008061086d610a6d565b9050600061087b8286610963565b9050838110156108c0576040517f08c379a00000000000000000000000000000000000000000000000000000000081526004016108b790611be2565b60405180910390fd5b6108cd8286868403610a75565b60019250505092915050565b6000806108e4610a6d565b90506108f1818585610cca565b600191505092915050565b610904610f40565b61090e8383611021565b8273ffffffffffffffffffffffffffffffffffffffff167fb969d134776a7f04430dbbcac4e68734b1c6c5adcecbf68c3cbe6a9a4f2c8a1d8383604051610956929190611b40565b60405180910390a2505050565b6000600160008473ffffffffffffffffffffffffffffffffffffffff1673ffffffffffffffffffffffffffffffffffffffff16815260200190815260200160002060008373ffffffffffffffffffffffffffffffffffffffff1673ffffffffffffffffffffffffffffffffffffffff16815260200190815260200160002054905092915050565b6109f2610f40565b600073ffffffffffffffffffffffffffffffffffffffff168173ffffffffffffffffffffffffffffffffffffffff1603610a61576040517f08c379a0000000000000000000000000000000000000000000000000000000008152600401610a5890611c74565b60405180910390fd5b610a6a81611177565b50565b600033905090565b600073ffffffffffffffffffffffffffffffffffffffff168373ffffffffffffffffffffffffffffffffffffffff1603610ae4576040517f08c379a0000000000000000000000000000000000000000000000000000000008152600401610adb90611d06565b60405180910390fd5b600073ffffffffffffffffffffffffffffffffffffffff168273ffffffffffffffffffffffffffffffffffffffff1603610b53576040517f08c379a0000000000000000000000000000000000000000000000000000000008152600401610b4a90611d98565b60405180910390fd5b80600160008573ffffffffffffffffffffffffffffffffffffffff1673ffffffffffffffffffffffffffffffffffffffff16815260200190815260200160002060008473ffffffffffffffffffffffffffffffffffffffff1673ffffffffffffffffffffffffffffffffffffffff168152602001908152602001600020819055508173ffffffffffffffffffffffffffffffffffffffff168373ffffffffffffffffffffffffffffffffffffffff167f8c5be1e5ebec7d5bd14f71427d1e84f3dd0314c0f7b2291e5b200ac8c7c3b92583604051610c319190611741565b60405180910390a3505050565b6000610c4a8484610963565b90507fffffffffffffffffffffffffffffffffffffffffffffffffffffffffffffffff8114610cc45781811015610cb6576040517f08c379a0000000000000000000000000000000000000000000000000000000008152600401610cad90611e04565b60405180910390fd5b610cc38484848403610a75565b5b50505050565b600073ffffffffffffffffffffffffffffffffffffffff168373ffffffffffffffffffffffffffffffffffffffff1603610d39576040517f08c379a0000000000000000000000000000000000000000000000000000000008152600401610d3090611e96565b60405180910390fd5b600073ffffffffffffffffffffffffffffffffffffffff168273ffffffffffffffffffffffffffffffffffffffff1603610da8576040517f08c379a0000000000000000000000000000000000000000000000000000000008152600401610d9f90611f28565b60405180910390fd5b610db383838361146d565b60008060008573ffffffffffffffffffffffffffffffffffffffff1673ffffffffffffffffffffffffffffffffffffffff16815260200190815260200160002054905081811015610e39576040517f08c379a0000000000000000000000000000000000000000000000000000000008152600401610e3090611fba565b60405180910390fd5b8181036000808673ffffffffffffffffffffffffffffffffffffffff1673ffffffffffffffffffffffffffffffffffffffff16815260200190815260200160002081905550816000808573ffffffffffffffffffffffffffffffffffffffff1673ffffffffffffffffffffffffffffffffffffffff168152602001908152602001600020600082825401925050819055508273ffffffffffffffffffffffffffffffffffffffff168473ffffffffffffffffffffffffffffffffffffffff167fddf252ad1be2c89b69c2b068fc378daa952ba7f163c4a11628f55a4df523b3ef84604051610f279190611741565b60405180910390a3610f3a8484846114c5565b50505050565b610f48610a6d565b73ffffffffffffffffffffffffffffffffffffffff16610f66610735565b73ffffffffffffffffffffffffffffffffffffffff1614610fbc576040517f08c379a0000000000000000000000000000000000000000000000000000000008152600401610fb390612026565b60405180910390fd5b565b610fc66114ca565b6000600560146101000a81548160ff0219169083151502179055507f5db9ee0a495bf2e6ff9c91a7834c1ba4fdd244a5e8aa4e537bd38aeae4b073aa61100a610a6d565b60405161101791906119b3565b60405180910390a1565b600073ffffffffffffffffffffffffffffffffffffffff168273ffffffffffffffffffffffffffffffffffffffff1603611090576040517f08c379a000000000000000000000000000000000000000000000000000000000815260040161108790612092565b60405180910390fd5b61109c6000838361146d565b80600260008282546110ae9190611b0c565b92505081905550806000808473ffffffffffffffffffffffffffffffffffffffff1673ffffffffffffffffffffffffffffffffffffffff168152602001908152602001600020600082825401925050819055508173ffffffffffffffffffffffffffffffffffffffff16600073ffffffffffffffffffffffffffffffffffffffff167fddf252ad1be2c89b69c2b068fc378daa952ba7f163c4a11628f55a4df523b3ef8360405161115f9190611741565b60405180910390a3611173600083836114c5565b5050565b6000600560009054906101000a900473ffffffffffffffffffffffffffffffffffffffff16905081600560006101000a81548173ffffffffffffffffffffffffffffffffffffffff021916908373ffffffffffffffffffffffffffffffffffffffff1602179055508173ffffffffffffffffffffffffffffffffffffffff168173ffffffffffffffffffffffffffffffffffffffff167f8be0079c531659141344cd1fd0a4f28419497f9722a3daafe3b4186f6b6457e060405160405180910390a35050565b611245611513565b6001600560146101000a81548160ff0219169083151502179055507f62e78cea01bee320cd4e420270b5ea74000d11b0c9f74754ebdbfc544b05a258611289610a6d565b60405161129691906119b3565b60405180910390a1565b600073ffffffffffffffffffffffffffffffffffffffff168273ffffffffffffffffffffffffffffffffffffffff160361130f576040517f08c379a000000000000000000000000000000000000000000000000000000000815260040161130690612124565b60405180910390fd5b61131b8260008361146d565b60008060008473ffffffffffffffffffffffffffffffffffffffff1673ffffffffffffffffffffffffffffffffffffffff168152602001908152602001600020549050818110156113a1576040517f08c379a0000000000000000000000000000000000000000000000000000000008152600401611398906121b6565b60405180910390fd5b8181036000808573ffffffffffffffffffffffffffffffffffffffff1673ffffffffffffffffffffffffffffffffffffffff1681526020019081526020016000208190555081600260008282540392505081905550600073ffffffffffffffffffffffffffffffffffffffff168373ffffffffffffffffffffffffffffffffffffffff167fddf252ad1be2c89b69c2b068fc378daa952ba7f163c4a11628f55a4df523b3ef846040516114549190611741565b60405180910390a3611468836000846114c5565b505050565b61147883838361155d565b6114806105c0565b156114c0576040517f08c379a00000000000000000000000000000000000000000000000000000000081526004016114b790612222565b60405180910390fd5b505050565b505050565b6114d26105c0565b611511576040517f08c379a00000000000000000000000000000000000000000000000000000000081526004016115089061228e565b60405180910390fd5b565b61151b6105c0565b1561155b576040517f08c379a0000000000000000000000000000000000000000000000000000000008152600401611552906122fa565b60405180910390fd5b565b505050565b600081519050919050565b600082825260208201905092915050565b60005b8381101561159c578082015181840152602081019050611581565b60008484015250505050565b6000601f19601f8301169050919050565b60006115c482611562565b6115ce818561156d565b93506115de81856020860161157e565b6115e7816115a8565b840191505092915050565b6000602082019050818103600083015261160c81846115b9565b905092915050565b6000604051905090565b600080fd5b600080fd5b600073ffffffffffffffffffffffffffffffffffffffff82169050919050565b600061165382611628565b9050919050565b61166381611648565b811461166e57600080fd5b50565b6000813590506116808161165a565b92915050565b6000819050919050565b61169981611686565b81146116a457600080fd5b50565b6000813590506116b681611690565b92915050565b600080604083850312156116d3576116d261161e565b5b60006116e185828601611671565b92505060206116f2858286016116a7565b9150509250929050565b60008115159050919050565b611711816116fc565b82525050565b600060208201905061172c6000830184611708565b92915050565b61173b81611686565b82525050565b60006020820190506117566000830184611732565b92915050565b6000806000606084860312156117755761177461161e565b5b600061178386828701611671565b935050602061179486828701611671565b92505060406117a5868287016116a7565b9150509250925092565b600060ff82169050919050565b6117c5816117af565b82525050565b60006020820190506117e060008301846117bc565b92915050565b600080fd5b600080fd5b7f4e487b7100000000000000000000000000000000000000000000000000000000600052604160045260246000fd5b611828826115a8565b810181811067ffffffffffffffff82111715611847576118466117f0565b5b80604052505050565b600061185a611614565b9050611866828261181f565b919050565b600067ffffffffffffffff821115611886576118856117f0565b5b61188f826115a8565b9050602081019050919050565b82818337600083830152505050565b60006118be6118b98461186b565b611850565b9050828152602081018484840111156118da576118d96117eb565b5b6118e584828561189c565b509392505050565b600082601f830112611902576119016117e6565b5b81356119128482602086016118ab565b91505092915050565b600080604083850312156119325761193161161e565b5b600061194085828601611671565b925050602083013567ffffffffffffffff81111561196157611960611623565b5b61196d858286016118ed565b9150509250929050565b60006020828403121561198d5761198c61161e565b5b600061199b84828501611671565b91505092915050565b6119ad81611648565b82525050565b60006020820190506119c860008301846119a4565b92915050565b6000806000606084860312156119e7576119e661161e565b5b60006119f586828701611671565b9350506020611a06868287016116a7565b925050604084013567ffffffffffffffff811115611a2757611a26611623565b5b611a33868287016118ed565b9150509250925092565b60008060408385031215611a5457611a5361161e565b5b6000611a6285828601611671565b9250506020611a7385828601611671565b9150509250929050565b7f4e487b7100000000000000000000000000000000000000000000000000000000600052602260045260246000fd5b60006002820490506001821680611ac457607f821691505b602082108103611ad757611ad6611a7d565b5b50919050565b7f4e487b7100000000000000000000000000000000000000000000000000000000600052601160045260246000fd5b6000611b1782611686565b9150611b2283611686565b9250828201905080821115611b3a57611b39611add565b5b92915050565b6000604082019050611b556000830185611732565b8181036020830152611b6781846115b9565b90509392505050565b7f45524332303a2064656372656173656420616c6c6f77616e63652062656c6f7760008201527f207a65726f000000000000000000000000000000000000000000000000000000602082015250565b6000611bcc60258361156d565b9150611bd782611b70565b604082019050919050565b60006020820190508181036000830152611bfb81611bbf565b9050919050565b7f4f776e61626c653a206e6577206f776e657220697320746865207a65726f206160008201527f6464726573730000000000000000000000000000000000000000000000000000602082015250565b6000611c5e60268361156d565b9150611c6982611c02565b604082019050919050565b60006020820190508181036000830152611c8d81611c51565b9050919050565b7f45524332303a20617070726f76652066726f6d20746865207a65726f2061646460008201527f7265737300000000000000000000000000000000000000000000000000000000602082015250565b6000611cf060248361156d565b9150611cfb82611c94565b604082019050919050565b60006020820190508181036000830152611d1f81611ce3565b9050919050565b7f45524332303a20617070726f766520746f20746865207a65726f20616464726560008201527f7373000000000000000000000000000000000000000000000000000000000000602082015250565b6000611d8260228361156d565b9150611d8d82611d26565b604082019050919050565b60006020820190508181036000830152611db181611d75565b9050919050565b7f45524332303a20696e73756666696369656e7420616c6c6f77616e6365000000600082015250565b6000611dee601d8361156d565b9150611df982611db8565b602082019050919050565b60006020820190508181036000830152611e1d81611de1565b9050919050565b7f45524332303a207472616e736665722066726f6d20746865207a65726f20616460008201527f6472657373000000000000000000000000000000000000000000000000000000602082015250565b6000611e8060258361156d565b9150611e8b82611e24565b604082019050919050565b60006020820190508181036000830152611eaf81611e73565b9050919050565b7f45524332303a207472616e7366657220746f20746865207a65726f206164647260008201527f6573730000000000000000000000000000000000000000000000000000000000602082015250565b6000611f1260238361156d565b9150611f1d82611eb6565b604082019050919050565b60006020820190508181036000830152611f4181611f05565b9050919050565b7f45524332303a207472616e7366657220616d6f756e742065786365656473206260008201527f616c616e63650000000000000000000000000000000000000000000000000000602082015250565b6000611fa460268361156d565b9150611faf82611f48565b604082019050919050565b60006020820190508181036000830152611fd381611f97565b9050919050565b7f4f776e61626c653a2063616c6c6572206973206e6f7420746865206f776e6572600082015250565b600061201060208361156d565b915061201b82611fda565b602082019050919050565b6000602082019050818103600083015261203f81612003565b9050919050565b7f45524332303a206d696e7420746f20746865207a65726f206164647265737300600082015250565b600061207c601f8361156d565b915061208782612046565b602082019050919050565b600060208201905081810360008301526120ab8161206f565b9050919050565b7f45524332303a206275726e2066726f6d20746865207a65726f2061646472657360008201527f7300000000000000000000000000000000000000000000000000000000000000602082015250565b600061210e60218361156d565b9150612119826120b2565b604082019050919050565b6000602082019050818103600083015261213d81612101565b9050919050565b7f45524332303a206275726e20616d6f756e7420657863656564732062616c616e60008201527f6365000000000000000000000000000000000000000000000000000000000000602082015250565b60006121a060228361156d565b91506121ab82612144565b604082019050919050565b600060208201905081810360008301526121cf81612193565b9050919050565b7f546f6b656e207472616e73666572732061726520706175736564000000000000600082015250565b600061220c601a8361156d565b9150612217826121d6565b602082019050919050565b6000602082019050818103600083015261223b816121ff565b9050919050565b7f5061757361626c653a206e6f7420706175736564000000000000000000000000600082015250565b600061227860148361156d565b915061228382612242565b602082019050919050565b600060208201905081810360008301526122a78161226b565b9050919050565b7f5061757361626c653a2070617573656400000000000000000000000000000000600082015250565b60006122e460108361156d565b91506122ef826122ae565b602082019050919050565b60006020820190508181036000830152612313816122d7565b905091905056fea2646970667358221220dd803629a74bc82e0c121cd101583a0139fb739640cd804eeeabc5450f32b8d464736f6c63430008130033",
  "linkReferences": {},
  "deployedLinkReferences": {}
}